:020000040800F2
:100000000000022055020008590200085B020008A7
:100010007102000873020008890200080000000055
:100020000000000000000000000000009F02000827
:10003000A102000800000000A3020008790E0008D9
:10004000B9020008B9020008B9020008B9020008A4
:10005000B9020008B9020008B9020008B902000894
:10006000B9020008B9020008B9020008B902000884
:10007000B9020008B9020008B9020008B902000874
:10008000B9020008B9020008B9020008B902000864
:10009000B9020008B9020008B9020008B902000854
:1000A000B9020008B9020008B9020008B902000844
:1000B000B9020008B9020008B9020008B902000834
:1000C000B9020008B9020008B9020008B902000824
:1000D000B9020008B9020008B9020008B902000814
:1000E000B9020008B9020008B9020008B902000804
:1000F000B9020008B9020008B9020008B9020008F4
:10010000B9020008B9020008B9020008B9020008E3
:10011000B9020008B9020008B9020008B9020008D3
:10012000B9020008B9020008B9020008B9020008C3
:10013000B9020008B9020008B9020008B9020008B3
:10014000B9020008B9020008B9020008B9020008A3
:10015000B9020008B9020008B9020008B902000893
:10016000B9020008B9020008B9020008B902000883
:10017000B9020008B9020008B90200080000000036
:10018000B9020008B902000807B500F0D3FC274BFC
:100190002748834226D3274A274900208A422CD366
:1001A00000F072FD254D264C01A9684600F0BAFC0E
:1001B000641BA4100026B44228DC224D224C641B90
:1001C000A4100026B44226DCDDE9000100F0C8FDE1
:1001D0001E4E1F4CA41B0546A410002C20DC2846F4
:1001E00000F09CFCD3E900129C680C33891A9442FD
:1001F000CFD9555815600432F9E752F8083B52F848
:10020000044C9C42CAD943F8040BFAE755F8043B66
:1002100098470136CFE755F8043B98470136D1E7B8
:10022000013C56F824309847D7E700BFBC020008CD
:10023000D4020008D4020008E4020008E402000826
:10024000E4020008E4020008E8020008E8020008EE
:10025000E802000814480047FEE71EF0040F0CBF38
:10026000EFF30880EFF309807146104A1047FEE76C
:10027000FEE71EF0040F0CBFEFF30880EFF30980D8
:1002800071460B4A1047FEE71EF0040F0CBFEFF358
:100290000880EFF309807146064A1047FEE7FEE743
:1002A000FEE7FEE770470000890100086F020008C2
:0A02B000870200089D020008FEE727
:1002BC00901100080000002014000020901100088C
:1002CC00000000100000001014000020600000204E
:0C02DC000000001000000010D90D000808
:1002E80038B50E4B1A784FF47A73B3FBF2F30C4A15
:1002F80005461068B0FBF3F000F086F8044658B9DC
:100308000F2D09D8024629464FF0FF3000F04AF871
:10031800044B20461D6038BD0120FCE7000000208A
:10032800100000200400002008B50B4B1A6842F4A6
:1003380000721A601A6842F480621A601A6842F4FD
:1003480080721A60032000F01BF80F20FFF7C8FF27
:1003580000F060FD002008BD003C0240034A044B49
:1003680011681B780B441360704700BF140000200D
:1003780000000020014B1868704700BF14000020DF
:100388000749CA6822F4E0620302120403F4E06336
:10039800120C134343F0BF6343F40033CB60704740
:1003A80000ED00E0164B30B5DC68C4F30224C4F15C
:1003B8000703251D042B28BF0423062D4FF0FF3506
:1003C8008CBF033C002405FA03F321EA0303A5408C
:1003D80022EA0502A340002843EA0203ACBF00F169
:1003E8006040084A4FEA0313B8BF00F00F00DBB2C1
:1003F800AABF00F56140135480F8003330BD00BF38
:1004080000ED00E014ED00E00138B0F1807F0BD280
:100418004FF0E023054A5861F02182F823100020AC
:10042800072298611A6170470120704700ED00E0CB
:100438004FF0E02304281A690CBF42F0040222F0AE
:1004480004021A61704700002DE9F74FDFF8C0E198
:10045800704E0024012303FA04F80B6808EA030924
:1004680038EA030321D14A688D68032322F0100A71
:100478004FEA440C03FA0CF70AF1FF33012B6FEA39
:10048800070702F0030316D9D0F80C8005FA0CF51B
:1004980007EA080845EA0805C560056803FA0CF389
:1004A8003D402B430360D3003FD40134102CD1D1FD
:1004B80003B0BDE8F08FD0F80890D1F80CB009EA85
:1004C80007090BFA0CFB4BEA090BC0F808B0D0F887
:1004D8000490120929EA0809A24042EA0902426086
:1004E800C26805FA0CF53A401543BAF1020FC56027
:1004F80006D0026803FA0CF33A4013430360D4E7CA
:10050800E50800EB850504F007082A6A4FEA880821
:100518004FF00F0909FA08F922EA09090A6902FAEB
:1005280008F242EA09022A62E3E700230193DEF8AF
:10053800445045F48045CEF84450DEF8445005F464
:1005480080450195019D24F0030505F1804505F5D9
:100558009C3504F00307D5F80880BF004FF00F0C56
:100568000CFA07FC28EA0C0CDFF8AC8040451FD0D9
:1005780003F1804303F5013398423CD003F58063CF
:1005880098423AD003F58063984238D003F58063E7
:10059800984236D003F58063984234D003F58063DF
:1005A800984232D003F58063984214BF082307238A
:1005B800BB4043EA0C03AB6033686FEA0905D70315
:1005C80054BF2B4049EA030333607368970354BF51
:1005D8002B4049EA03037360B368D70254BF2B402A
:1005E80049EA0303B360F368920254BF2B4049EA17
:1005F8000303F36059E70123DAE70223D8E703236B
:10060800D6E70423D4E70523D2E70623D0E700BFC3
:1006180000380240003C01400000024003691942D2
:1006280014BF0120002070472DE9F341044640B370
:100638000368DD0710D4236898075BD423681A077A
:1006480000F19D8023685B0700F1BD80A369002B42
:1006580040F0248100202CE08D4B9A6802F00C02B7
:10066800042A07D09A6802F00C02082A0BD15B68AA
:10067800590208D5864B1B689A03DCD56368002BA2
:10068800D9D1012015E06368814DB3F5803F13D1BE
:100698002B6843F480332B60FFF76CFE7C4E0546D5
:1006A80033689B03C7D4FFF765FE401B6428F7D95E
:1006B800032002B0BDE8F081B3F5A02F04D12B6868
:1006C80043F480232B60E3E72A6822F480322A600F
:1006D8002A6822F480222A60002BDDD1FFF74AFE27
:1006E80006462B689F03A6D5FFF744FE801B6428A7
:1006F800F7D9DDE7664B9A6812F00C0F07D09A68B5
:1007080002F00C02082A11D15B685E020ED4604A1E
:1007180013689D0702D5E368012BB2D113682169DC
:1007280023F0F80343EAC103136087E7E268594BF3
:10073800B2B101221A60FFF71DFE554D06462B681F
:10074800980707D52B68226923F0F80343EAC20308
:100758002B6073E7FFF70EFE801B0228EFD9A7E78F
:100768001A60FFF707FE4A4E0546336899077FF57A
:1007780065AFFFF7FFFD401B0228F6D998E76269CD
:10078800444B82B10122C3F8802EFFF7F3FD404E9F
:100798000546736F9F073FF555AFFFF7EBFD401B0D
:1007A8000228F6D984E7C3F8802EFFF7E3FD384E18
:1007B8000546736F98077FF545AFFFF7DBFD401BD4
:1007C8000228F6D974E7324B1A6C12F0805228D1FD
:1007D80001921A6C42F080521A641B6C03F0805329
:1007E8000193019B01272C4D2B68D9051BD5A368C4
:1007F800274D012B27D12B6F43F001032B67FFF700
:10080800B9FD234E054641F28838336F9B0739D529
:10081800002F3FF41BAF1E4A136C23F08053136460
:1008280014E70027DFE72B6843F480732B60FFF79A
:10083800A1FD06462B68DA05D9D4FFF79BFD801B7E
:100848000228F7D934E7052B04D12B6F43F00403B2
:100858002B67D0E72A6F22F001022A672A6F22F05D
:1008680004022A67002BCAD1FFF784FD41F28838B9
:1008780006462B6F9807CBD5FFF77CFD801B4045BC
:10088800F7D915E7FFF776FD401B4045BDD90FE7BF
:10089800003802400000474200700040344DAA680A
:1008A80002F00C02082A3ED0022B324B4FF0000215
:1008B8001A662BD1FFF75EFD06462B6899011FD4F7
:1008C800D4E907321343626A43EA8213E26A43EACD
:1008D8000263A26A5208013A43EA02436B60254B5D
:1008E800234D01221A66FFF745FD04462B689A013D
:1008F8003FF5B0AEFFF73EFD001B0228F6D9D7E65C
:10090800FFF738FD801B0228D7D9D1E6FFF732FD63
:1009180004462B689B017FF59DAEFFF72BFD001B5E
:100928000228F6D9C4E6012B3FF4ABAE6868E36948
:1009380000F480029A427FF4A4AE226A00F03F03DA
:1009480093427FF49EAE626A47F6C07303409342B7
:100958007FF497AEA26A00F4403393427FF491AEDD
:10096800E36A00F07060C01A18BF0120A1E600BF5A
:100978000038024000004742134908B58B6803F06D
:100988000C03042B1CD0082B1CD14A684B684968FF
:1009980013F4800314BF0D480D48C1F3881118BF24
:1009A800002302F03F02A1FB000100F069FA064BA8
:1009B8005B68C3F3014301335B00B0FBF3F008BD90
:1009C8000248FCE70248FAE70038024000127A00C1
:1009D8000024F4002DE9F0410D46044610B9012029
:1009E800BDE8F081434B1A6802F00F028A4228D30F
:1009F80021688F072DD4C80740D43E4B1A6802F0EF
:100A08000F02AA4265D8226851076BD4130707D58D
:100A1800394A2169936823F4604343EAC103936028
:100A2800FFF7AAFF344B354A9B68C3F30313D35C23
:100A3800D840334B1860334B1868FFF751FC00203F
:100A4800CEE7CAB21A701B6803F00F038B42C6D1F7
:100A5800CEE7294B11F0040F1EBF9A6842F4E0520A
:100A68009A600E0742BF9A6842F460429A609A6898
:100A7800A06822F0F00202439A60BCE762681E4B4D
:100A8800012A1CD11B6813F4003FA8D01A4EB36882
:100A980023F003031343B360FFF76CFC41F288387B
:100AA8000746B368626803F00C03B3EB820FA4D067
:100AB800FFF760FCC01B4045F3D9032090E7911E67
:100AC80001291B6802D813F0007FDEE713F0020F3C
:100AD800DBE7EAB21A701B6803F00F03AB427FF43E
:100AE8007EAF90E70449E0688B6823F4E053034342
:100AF8008B608BE7003C0240003802407811000808
:100B08001000002004000020014B1868704700BF47
:100B18001000002008B500F015F80000012303605C
:100B2800014B0B60704700BF0800002008B500F0BB
:100B38001BF8024B024A9A6008BD00BF00ED00E0B6
:100B480000000008BFF34F8F0549064BCA6802F43E
:100B5800E0621343CB60BFF34F8F00BFFDE700BFD8
:100B680000ED00E00400FA05024B4FF000629A60C5
:100B7800704700BF00ED00E0154B9A6802F00C02C8
:100B8800042A21D0082A21D159685A685B68490289
:100B9800C3F388134CBF0F490F4902F03F02B1FB62
:100BA800F2F253430A4A5268C2F301420132520038
:100BB800B3FBF2F3064A09499268C2F303128A5C4E
:100BC800D340074A13607047024BF3E7024BF1E743
:100BD8000038024000127A000024F400781100085E
:100BE8001000002030B595B00024234B01941A6CF6
:100BF80042F080521A641B6C03F080530193019BEE
:100C08001E4B02941A6842F480421A601B6803F46F
:100C1800804302930122029B4FF48033CDE90823DD
:100C28004FF480010823CDE90F1302254FF4A87370
:100C3800CDE9113508A8072313930E95FFF7F4FCA7
:100C48000F23CDE903354FF4A0504FF48053CDE97D
:100C58000603052103A80594FFF7BCFEFFF754FF20
:100C68004FF47A73B0FBF3F0FFF7CEFB0420FFF7E5
:100C7800DFFB15B030BD00BF0038024000700040F7
:100C880008B5FFF751FBFFF7ADFFBDE80840FFF7D8
:100C980073BF10B5037301239340C0E9001283604A
:100CA80010BD0368027B03F5801380339B022AB1D1
:100CB8004168012210318A409A6170478268FBE7D7
:100CC8000368027B03F5801380339B0212B18268AC
:100CD8009A6170474168012210318A40F8E70000A4
:100CE80030B504460D482368056B012202FA03F16A
:100CF80029430163A16887B003F58013CDE9011288
:100D080080330221CDE90321980201A9FFF79CFB5A
:100D18002046FFF7D5FF07B030BD00BF00380240BE
:100D28007FB500230A4A0093116B0A4841F001017C
:100D38001163126B029302F001020092009A03936E
:100D4800012201A90192FFF77FFB07B05DF804FBC0
:100D580000380240000002402DE9F34101A800F0EC
:100D68005BF81648154DDFF85880FFF7B9FF1548AE
:100D7800FFF7B6FF1448FFF7B3FF1448FFF7B0FFBB
:100D8800FFF7CEFF002705F12006642000F05EF88B
:100D980001214046FFF742FC8742044606D0284618
:100DA80034B1FFF77EFF3046FFF78AFF2746ECE7AE
:100DB800FFF786FF3046FFF774FFF7E71C000020B7
:100DC800000002402C0000203C0000204C000020C5
:100DD80010B50F4C00230C2203212046FFF759FFC2
:100DE80000230D22032104F11000FFF752FF002316
:100DF8000E22032104F12000FFF74BFF04F130001D
:100E08000023BDE810400F220321FFF742BF00BFB7
:100E18001C000020704700000A4B4FF47A721B68D0
:100E2800B3FBF2F3013BB3F1807F0AD24FF0E0222B
:100E3800F0215361044B83F82310002393610723A7
:100E4800136170471000002000ED00E0024B1860AD
:100E58001A68002AFCD170475C000020034B1A680E
:100E680012B11A68013A1A60704700BF5C0000208E
:100E780008B5FFF773FABDE80840FFF7EFBF0000B9
:100E880053B94AB9002908BF00281CBF4FF0FF31E9
:100E98004FF0FF3000F06AB9ADF1080C6DE904CEEF
:100EA80000F006F8DDF804E0DDE9022304B070473D
:100EB8002DE9F047089D0C46002B4ED194468C45F1
:100EC8008646B2FA82F262D94AB1C2F12003914051
:100ED80020FA03F30CFA02FC194300FA02FE4FEA67
:100EE8001C471FFA8CF6B1FBF7F44FEA1E4307FBC9
:100EF800141143EA014304FB06F199420AD91CEB99
:100F0800030304F1FF3080F01381994240F210810D
:100F1800023C6344591A1FFA8EF3B1FBF7F007FB42
:100F2800101143EA014300FB06F69E420AD91CEB66
:100F3800030300F1FF3180F0FD809E4240F2FA8009
:100F4800634402389B1B40EA044000211DB1D34092
:100F58000022C5E90032BDE8F0878B4205D90DB102
:100F6800C5E9000100210846F5E7B3FA83F1002935
:100F780046D1A34202D39042C0F0F180861A64EBB6
:100F880003030120002DE6D0C5E90063E3E7002A4A
:100F980040F09180A1EB0C044FEA1C481FFA8CF733
:100FA8000121B4FBF8F64FEA1E4308FB164443EA56
:100FB800044307FB06F0984208D91CEB030306F12B
:100FC800FF3402D2984200F2CE8026461C1A1FFA3D
:100FD8008EF3B4FBF8F008FB104443EA044300FB2B
:100FE80007F79F4208D91CEB030300F1FF3402D234
:100FF8009F4200F2B1802046DB1B40EA0640A5E78D
:10100800C1F120068B4022FA06F71F4320FA06FC9E
:1010180004FA01F343EA0C03F44000FA01F8380C2F
:101028004FEA1349B4FBF0FE1FFA87FC00FB1E448D
:1010380049EA04440EFB0CF9A14502FA01F20AD967
:101048003C190EF1FF3A80F08580A14540F282807C
:10105800AEF1020E3C44A4EB09041FFA83F9B4FB79
:10106800F0F300FB134449EA044403FB0CFCA445D9
:1010780007D93C1903F1FF3068D2A44566D9023B71
:101088003C4443EA0E40A0FB0293A4EB0C049C42B0
:10109800CE469C4652D34FD055B1B8EB0E0364EB05
:1010A8000C0404FA06F6CB40CC401E43C5E90064A4
:1010B8000021BDE8F087C2F1200320FA03F10CFA01
:1010C80002FC24FA03F394400C434FEA1C4800FA4C
:1010D80002FE1FFA8CF7B3FBF8F008FB1031230C63
:1010E80043EA014300FB07F1994208D91CEB0303CB
:1010F80000F1FF362CD299422AD9023863445B1A90
:10110800A4B2B3FBF8F108FB113344EA034401FB32
:1011180007F3A34208D91CEB040401F1FF3613D2EC
:10112800A34211D902396444E41A41EA004138E77C
:101138000446EFE6084605E7C845ADD2B9EB020E0E
:1011480063EB070C0138A7E73146EDE7034698E75C
:101158003046D4E7D6467EE7634402384CE7064675
:10116800234608460EE7023E63442FE7704700BF58
:10117800000000000000000001020304060708093F
:0811880030FDFF7F01000000B3
:1011900001FFFFFF10000000180000200000000009
:0411A0000024F40033
:040000050800018965
:00000001FF
